{
  "_format": "hh3-artifact-1",
  "contractName": "LandEscrow",
  "sourceName": "contracts/LandEscrow.sol",
  "abi": [
    {
      "inputs": [
        {
          "internalType": "address",
          "name": "_landNFTAddress",
          "type": "address"
        }
      ],
      "stateMutability": "nonpayable",
      "type": "constructor"
    },
    {
      "inputs": [],
      "name": "ReentrancyGuardReentrantCall",
      "type": "error"
    },
    {
      "anonymous": false,
      "inputs": [
        {
          "indexed": false,
          "internalType": "string",
          "name": "tradeId",
          "type": "string"
        },
        {
          "indexed": true,
          "internalType": "address",
          "name": "buyer",
          "type": "address"
        },
        {
          "indexed": false,
          "internalType": "uint256",
          "name": "amount",
          "type": "uint256"
        }
      ],
      "name": "FundsDeposited",
      "type": "event"
    },
    {
      "anonymous": false,
      "inputs": [
        {
          "indexed": false,
          "internalType": "string",
          "name": "tradeId",
          "type": "string"
        },
        {
          "indexed": true,
          "internalType": "address",
          "name": "seller",
          "type": "address"
        },
        {
          "indexed": false,
          "internalType": "uint256",
          "name": "tokenId",
          "type": "uint256"
        }
      ],
      "name": "NftDeposited",
      "type": "event"
    },
    {
      "anonymous": false,
      "inputs": [
        {
          "indexed": false,
          "internalType": "string",
          "name": "tradeId",
          "type": "string"
        },
        {
          "indexed": true,
          "internalType": "address",
          "name": "buyer",
          "type": "address"
        },
        {
          "indexed": true,
          "internalType": "address",
          "name": "seller",
          "type": "address"
        }
      ],
      "name": "TradeCancelled",
      "type": "event"
    },
    {
      "anonymous": false,
      "inputs": [
        {
          "indexed": false,
          "internalType": "string",
          "name": "tradeId",
          "type": "string"
        },
        {
          "indexed": true,
          "internalType": "address",
          "name": "buyer",
          "type": "address"
        },
        {
          "indexed": true,
          "internalType": "address",
          "name": "seller",
          "type": "address"
        },
        {
          "indexed": false,
          "internalType": "uint256",
          "name": "tokenId",
          "type": "uint256"
        },
        {
          "indexed": false,
          "internalType": "uint256",
          "name": "price",
          "type": "uint256"
        }
      ],
      "name": "TradeExecuted",
      "type": "event"
    },
    {
      "anonymous": false,
      "inputs": [
        {
          "indexed": false,
          "internalType": "string",
          "name": "tradeId",
          "type": "string"
        },
        {
          "indexed": true,
          "internalType": "address",
          "name": "buyer",
          "type": "address"
        },
        {
          "indexed": true,
          "internalType": "address",
          "name": "seller",
          "type": "address"
        },
        {
          "indexed": false,
          "internalType": "uint256",
          "name": "tokenId",
          "type": "uint256"
        },
        {
          "indexed": false,
          "internalType": "uint256",
          "name": "price",
          "type": "uint256"
        }
      ],
      "name": "TradeInitiated",
      "type": "event"
    },
    {
      "inputs": [
        {
          "internalType": "string",
          "name": "tradeId",
          "type": "string"
        }
      ],
      "name": "cancelTrade",
      "outputs": [],
      "stateMutability": "nonpayable",
      "type": "function"
    },
    {
      "inputs": [
        {
          "internalType": "string",
          "name": "tradeId",
          "type": "string"
        },
        {
          "internalType": "address",
          "name": "seller",
          "type": "address"
        },
        {
          "internalType": "uint256",
          "name": "tokenId",
          "type": "uint256"
        }
      ],
      "name": "depositFunds",
      "outputs": [],
      "stateMutability": "payable",
      "type": "function"
    },
    {
      "inputs": [
        {
          "internalType": "string",
          "name": "tradeId",
          "type": "string"
        }
      ],
      "name": "depositNFT",
      "outputs": [],
      "stateMutability": "nonpayable",
      "type": "function"
    },
    {
      "inputs": [
        {
          "internalType": "string",
          "name": "tradeId",
          "type": "string"
        }
      ],
      "name": "executeTrade",
      "outputs": [],
      "stateMutability": "nonpayable",
      "type": "function"
    },
    {
      "inputs": [],
      "name": "landNFT",
      "outputs": [
        {
          "internalType": "contract IERC721",
          "name": "",
          "type": "address"
        }
      ],
      "stateMutability": "view",
      "type": "function"
    },
    {
      "inputs": [
        {
          "internalType": "address",
          "name": "",
          "type": "address"
        },
        {
          "internalType": "address",
          "name": "",
          "type": "address"
        },
        {
          "internalType": "uint256",
          "name": "",
          "type": "uint256"
        },
        {
          "internalType": "bytes",
          "name": "",
          "type": "bytes"
        }
      ],
      "name": "onERC721Received",
      "outputs": [
        {
          "internalType": "bytes4",
          "name": "",
          "type": "bytes4"
        }
      ],
      "stateMutability": "pure",
      "type": "function"
    },
    {
      "inputs": [
        {
          "internalType": "string",
          "name": "",
          "type": "string"
        }
      ],
      "name": "trades",
      "outputs": [
        {
          "internalType": "address",
          "name": "buyer",
          "type": "address"
        },
        {
          "internalType": "address",
          "name": "seller",
          "type": "address"
        },
        {
          "internalType": "uint256",
          "name": "tokenId",
          "type": "uint256"
        },
        {
          "internalType": "uint256",
          "name": "price",
          "type": "uint256"
        },
        {
          "internalType": "bool",
          "name": "isFunded",
          "type": "bool"
        },
        {
          "internalType": "bool",
          "name": "isNftDeposited",
          "type": "bool"
        },
        {
          "internalType": "bool",
          "name": "isCompleted",
          "type": "bool"
        }
      ],
      "stateMutability": "view",
      "type": "function"
    }
  ],
  "bytecode": "0x608060405234801562000010575f80fd5b5060405162001dcd38038062001dcd8339818101604052810190620000369190620000e9565b60015f819055508060015f6101000a81548173ffffffffffffffffffffffffffffffffffffffff021916908373ffffffffffffffffffffffffffffffffffffffff1602179055505062000119565b5f80fd5b5f73ffffffffffffffffffffffffffffffffffffffff82169050919050565b5f620000b38262000088565b9050919050565b620000c581620000a7565b8114620000d0575f80fd5b50565b5f81519050620000e381620000ba565b92915050565b5f6020828403121562000101576200010062000084565b5b5f6200011084828501620000d3565b91505092915050565b611ca680620001275f395ff3fe60806040526004361061006f575f3560e01c806339d022e11161004d57806339d022e1146100f357806347a041001461011d578063b71454b21461015f578063f711cdf7146101875761006f565b806308638fd114610073578063150b7a021461008f5780632b2b534e146100cb575b5f80fd5b61008d6004803603810190610088919061132e565b6101af565b005b34801561009a575f80fd5b506100b560048036038101906100b091906113f7565b6104f0565b6040516100c291906114b5565b60405180910390f35b3480156100d6575f80fd5b506100f160048036038101906100ec91906114ce565b610504565b005b3480156100fe575f80fd5b506101076107fe565b6040516101149190611570565b60405180910390f35b348015610128575f80fd5b50610143600480360381019061013e91906114ce565b610823565b60405161015697969594939291906115c1565b60405180910390f35b34801561016a575f80fd5b50610185600480360381019061018091906114ce565b6108dd565b005b348015610192575f80fd5b506101ad60048036038101906101a891906114ce565b610d8b565b005b6101b7611107565b5f34116101f9576040517f08c379a00000000000000000000000000000000000000000000000000000000081526004016101f090611688565b60405180910390fd5b5f73ffffffffffffffffffffffffffffffffffffffff166002846040516102209190611712565b90815260200160405180910390205f015f9054906101000a900473ffffffffffffffffffffffffffffffffffffffff1673ffffffffffffffffffffffffffffffffffffffff16146102a6576040517f08c379a000000000000000000000000000000000000000000000000000000000815260040161029d90611772565b60405180910390fd5b6040518060e001604052803373ffffffffffffffffffffffffffffffffffffffff1681526020018373ffffffffffffffffffffffffffffffffffffffff1681526020018281526020013481526020016001151581526020015f151581526020015f151581525060028460405161031c9190611712565b90815260200160405180910390205f820151815f015f6101000a81548173ffffffffffffffffffffffffffffffffffffffff021916908373ffffffffffffffffffffffffffffffffffffffff1602179055506020820151816001015f6101000a81548173ffffffffffffffffffffffffffffffffffffffff021916908373ffffffffffffffffffffffffffffffffffffffff16021790555060408201518160020155606082015181600301556080820151816004015f6101000a81548160ff02191690831515021790555060a08201518160040160016101000a81548160ff02191690831515021790555060c08201518160040160026101000a81548160ff0219169083151502179055509050508173ffffffffffffffffffffffffffffffffffffffff163373ffffffffffffffffffffffffffffffffffffffff167ff598c81f490370a4c8ebac785e15feaac79e97cd7e82d7b846e92c3a5339869685843460405161048b939291906117c8565b60405180910390a33373ffffffffffffffffffffffffffffffffffffffff167fe14bc78a2201dba9ee2a77ac50b4b71ec8e6744c67a2bd0c33d1b8afb0e284ce84346040516104db929190611804565b60405180910390a26104eb61114b565b505050565b5f63150b7a0260e01b905095945050505050565b61050c611107565b5f60028260405161051d9190611712565b908152602001604051809103902090505f73ffffffffffffffffffffffffffffffffffffffff16815f015f9054906101000a900473ffffffffffffffffffffffffffffffffffffffff1673ffffffffffffffffffffffffffffffffffffffff16036105bd576040517f08c379a00000000000000000000000000000000000000000000000000000000081526004016105b49061187c565b60405180910390fd5b8060040160029054906101000a900460ff161561060f576040517f08c379a0000000000000000000000000000000000000000000000000000000008152600401610606906118e4565b60405180910390fd5b806001015f9054906101000a900473ffffffffffffffffffffffffffffffffffffffff1673ffffffffffffffffffffffffffffffffffffffff163373ffffffffffffffffffffffffffffffffffffffff16146106a0576040517f08c379a00000000000000000000000000000000000000000000000000000000081526004016106979061194c565b60405180910390fd5b8060040160019054906101000a900460ff16156106f2576040517f08c379a00000000000000000000000000000000000000000000000000000000081526004016106e9906119b4565b60405180910390fd5b60018160040160016101000a81548160ff02191690831515021790555060015f9054906101000a900473ffffffffffffffffffffffffffffffffffffffff1673ffffffffffffffffffffffffffffffffffffffff166342842e0e333084600201546040518463ffffffff1660e01b8152600401610771939291906119d2565b5f604051808303815f87803b158015610788575f80fd5b505af115801561079a573d5f803e3d5ffd5b505050503373ffffffffffffffffffffffffffffffffffffffff167f64fd7d77578222736bdba9e06c76e3ede62df2f85df02f91552787533b6d94fe8383600201546040516107ea929190611804565b60405180910390a2506107fb61114b565b50565b60015f9054906101000a900473ffffffffffffffffffffffffffffffffffffffff1681565b6002818051602081018201805184825260208301602085012081835280955050505050505f91509050805f015f9054906101000a900473ffffffffffffffffffffffffffffffffffffffff1690806001015f9054906101000a900473ffffffffffffffffffffffffffffffffffffffff1690806002015490806003015490806004015f9054906101000a900460ff16908060040160019054906101000a900460ff16908060040160029054906101000a900460ff16905087565b6108e5611107565b5f6002826040516108f69190611712565b908152602001604051809103902090505f73ffffffffffffffffffffffffffffffffffffffff16815f015f9054906101000a900473ffffffffffffffffffffffffffffffffffffffff1673ffffffffffffffffffffffffffffffffffffffff1603610996576040517f08c379a000000000000000000000000000000000000000000000000000000000815260040161098d9061187c565b60405180910390fd5b8060040160029054906101000a900460ff16156109e8576040517f08c379a00000000000000000000000000000000000000000000000000000000081526004016109df906118e4565b60405180910390fd5b805f015f9054906101000a900473ffffffffffffffffffffffffffffffffffffffff1673ffffffffffffffffffffffffffffffffffffffff163373ffffffffffffffffffffffffffffffffffffffff161480610a925750806001015f9054906101000a900473ffffffffffffffffffffffffffffffffffffffff1673ffffffffffffffffffffffffffffffffffffffff163373ffffffffffffffffffffffffffffffffffffffff16145b610ad1576040517f08c379a0000000000000000000000000000000000000000000000000000000008152600401610ac890611a51565b60405180910390fd5b60018160040160026101000a81548160ff021916908315150217905550806004015f9054906101000a900460ff1615610bef575f816004015f6101000a81548160ff0219169083151502179055505f815f015f9054906101000a900473ffffffffffffffffffffffffffffffffffffffff1673ffffffffffffffffffffffffffffffffffffffff168260030154604051610b6a90611a9c565b5f6040518083038185875af1925050503d805f8114610ba4576040519150601f19603f3d011682016040523d82523d5f602084013e610ba9565b606091505b5050905080610bed576040517f08c379a0000000000000000000000000000000000000000000000000000000008152600401610be490611afa565b60405180910390fd5b505b8060040160019054906101000a900460ff1615610cd5575f8160040160016101000a81548160ff02191690831515021790555060015f9054906101000a900473ffffffffffffffffffffffffffffffffffffffff1673ffffffffffffffffffffffffffffffffffffffff166342842e0e30836001015f9054906101000a900473ffffffffffffffffffffffffffffffffffffffff1684600201546040518463ffffffff1660e01b8152600401610ca7939291906119d2565b5f604051808303815f87803b158015610cbe575f80fd5b505af1158015610cd0573d5f803e3d5ffd5b505050505b806001015f9054906101000a900473ffffffffffffffffffffffffffffffffffffffff1673ffffffffffffffffffffffffffffffffffffffff16815f015f9054906101000a900473ffffffffffffffffffffffffffffffffffffffff1673ffffffffffffffffffffffffffffffffffffffff167f7ece6b0376898cb4d20248b0091d961404d112197175f6adc1d8ab9ab736709884604051610d779190611b18565b60405180910390a350610d8861114b565b50565b610d93611107565b5f600282604051610da49190611712565b90815260200160405180910390209050806004015f9054906101000a900460ff16610e04576040517f08c379a0000000000000000000000000000000000000000000000000000000008152600401610dfb90611b82565b60405180910390fd5b8060040160019054906101000a900460ff16610e55576040517f08c379a0000000000000000000000000000000000000000000000000000000008152600401610e4c90611bea565b60405180910390fd5b8060040160029054906101000a900460ff1615610ea7576040517f08c379a0000000000000000000000000000000000000000000000000000000008152600401610e9e906118e4565b60405180910390fd5b60018160040160026101000a81548160ff02191690831515021790555060015f9054906101000a900473ffffffffffffffffffffffffffffffffffffffff1673ffffffffffffffffffffffffffffffffffffffff166342842e0e30835f015f9054906101000a900473ffffffffffffffffffffffffffffffffffffffff1684600201546040518463ffffffff1660e01b8152600401610f48939291906119d2565b5f604051808303815f87803b158015610f5f575f80fd5b505af1158015610f71573d5f803e3d5ffd5b505050505f816001015f9054906101000a900473ffffffffffffffffffffffffffffffffffffffff1673ffffffffffffffffffffffffffffffffffffffff168260030154604051610fc190611a9c565b5f6040518083038185875af1925050503d805f8114610ffb576040519150601f19603f3d011682016040523d82523d5f602084013e611000565b606091505b5050905080611044576040517f08c379a000000000000000000000000000000000000000000000000000000000815260040161103b90611c52565b60405180910390fd5b816001015f9054906101000a900473ffffffffffffffffffffffffffffffffffffffff1673ffffffffffffffffffffffffffffffffffffffff16825f015f9054906101000a900473ffffffffffffffffffffffffffffffffffffffff1673ffffffffffffffffffffffffffffffffffffffff167f424d865df397536b12696fce4ae34f828fe8ac24675ef10042bae24c2578f0db85856002015486600301546040516110f2939291906117c8565b60405180910390a3505061110461114b565b50565b60025f5403611142576040517f3ee5aeb500000000000000000000000000000000000000000000000000000000815260040160405180910390fd5b60025f81905550565b60015f81905550565b5f604051905090565b5f80fd5b5f80fd5b5f80fd5b5f80fd5b5f601f19601f8301169050919050565b7f4e487b71000000000000000000000000000000000000000000000000000000005f52604160045260245ffd5b6111b38261116d565b810181811067ffffffffffffffff821117156111d2576111d161117d565b5b80604052505050565b5f6111e4611154565b90506111f082826111aa565b919050565b5f67ffffffffffffffff82111561120f5761120e61117d565b5b6112188261116d565b9050602081019050919050565b828183375f83830152505050565b5f611245611240846111f5565b6111db565b90508281526020810184848401111561126157611260611169565b5b61126c848285611225565b509392505050565b5f82601f83011261128857611287611165565b5b8135611298848260208601611233565b91505092915050565b5f73ffffffffffffffffffffffffffffffffffffffff82169050919050565b5f6112ca826112a1565b9050919050565b6112da816112c0565b81146112e4575f80fd5b50565b5f813590506112f5816112d1565b92915050565b5f819050919050565b61130d816112fb565b8114611317575f80fd5b50565b5f8135905061132881611304565b92915050565b5f805f606084860312156113455761134461115d565b5b5f84013567ffffffffffffffff81111561136257611361611161565b5b61136e86828701611274565b935050602061137f868287016112e7565b92505060406113908682870161131a565b9150509250925092565b5f80fd5b5f80fd5b5f8083601f8401126113b7576113b6611165565b5b8235905067ffffffffffffffff8111156113d4576113d361139a565b5b6020830191508360018202830111156113f0576113ef61139e565b5b9250929050565b5f805f805f608086880312156114105761140f61115d565b5b5f61141d888289016112e7565b955050602061142e888289016112e7565b945050604061143f8882890161131a565b935050606086013567ffffffffffffffff8111156114605761145f611161565b5b61146c888289016113a2565b92509250509295509295909350565b5f7fffffffff0000000000000000000000000000000000000000000000000000000082169050919050565b6114af8161147b565b82525050565b5f6020820190506114c85f8301846114a6565b92915050565b5f602082840312156114e3576114e261115d565b5b5f82013567ffffffffffffffff811115611500576114ff611161565b5b61150c84828501611274565b91505092915050565b5f819050919050565b5f61153861153361152e846112a1565b611515565b6112a1565b9050919050565b5f6115498261151e565b9050919050565b5f61155a8261153f565b9050919050565b61156a81611550565b82525050565b5f6020820190506115835f830184611561565b92915050565b611592816112c0565b82525050565b6115a1816112fb565b82525050565b5f8115159050919050565b6115bb816115a7565b82525050565b5f60e0820190506115d45f83018a611589565b6115e16020830189611589565b6115ee6040830188611598565b6115fb6060830187611598565b61160860808301866115b2565b61161560a08301856115b2565b61162260c08301846115b2565b98975050505050505050565b5f82825260208201905092915050565b7f5072696365206d7573742062652067726561746572207468616e207a65726f005f82015250565b5f611672601f8361162e565b915061167d8261163e565b602082019050919050565b5f6020820190508181035f83015261169f81611666565b9050919050565b5f81519050919050565b5f81905092915050565b5f5b838110156116d75780820151818401526020810190506116bc565b5f8484015250505050565b5f6116ec826116a6565b6116f681856116b0565b93506117068185602086016116ba565b80840191505092915050565b5f61171d82846116e2565b915081905092915050565b7f547261646520616c7265616479206578697374730000000000000000000000005f82015250565b5f61175c60148361162e565b915061176782611728565b602082019050919050565b5f6020820190508181035f83015261178981611750565b9050919050565b5f61179a826116a6565b6117a4818561162e565b93506117b48185602086016116ba565b6117bd8161116d565b840191505092915050565b5f6060820190508181035f8301526117e08186611790565b90506117ef6020830185611598565b6117fc6040830184611598565b949350505050565b5f6040820190508181035f83015261181c8185611790565b905061182b6020830184611598565b9392505050565b7f547261646520646f6573206e6f742065786973740000000000000000000000005f82015250565b5f61186660148361162e565b915061187182611832565b602082019050919050565b5f6020820190508181035f8301526118938161185a565b9050919050565b7f547261646520616c726561647920636f6d706c657465640000000000000000005f82015250565b5f6118ce60178361162e565b91506118d98261189a565b602082019050919050565b5f6020820190508181035f8301526118fb816118c2565b9050919050565b7f4f6e6c792073656c6c65722063616e206465706f736974204e465400000000005f82015250565b5f611936601b8361162e565b915061194182611902565b602082019050919050565b5f6020820190508181035f8301526119638161192a565b9050919050565b7f4e465420616c7265616479206465706f736974656400000000000000000000005f82015250565b5f61199e60158361162e565b91506119a98261196a565b602082019050919050565b5f6020820190508181035f8301526119cb81611992565b9050919050565b5f6060820190506119e55f830186611589565b6119f26020830185611589565b6119ff6040830184611598565b949350505050565b7f4f6e6c79206275796572206f722073656c6c65722063616e2063616e63656c005f82015250565b5f611a3b601f8361162e565b9150611a4682611a07565b602082019050919050565b5f6020820190508181035f830152611a6881611a2f565b9050919050565b5f81905092915050565b50565b5f611a875f83611a6f565b9150611a9282611a79565b5f82019050919050565b5f611aa682611a7c565b9150819050919050565b7f526566756e64206661696c6564000000000000000000000000000000000000005f82015250565b5f611ae4600d8361162e565b9150611aef82611ab0565b602082019050919050565b5f6020820190508181035f830152611b1181611ad8565b9050919050565b5f6020820190508181035f830152611b308184611790565b905092915050565b7f5472616465206973206e6f742066756e646564000000000000000000000000005f82015250565b5f611b6c60138361162e565b9150611b7782611b38565b602082019050919050565b5f6020820190508181035f830152611b9981611b60565b9050919050565b7f4e4654206973206e6f74206465706f73697465640000000000000000000000005f82015250565b5f611bd460148361162e565b9150611bdf82611ba0565b602082019050919050565b5f6020820190508181035f830152611c0181611bc8565b9050919050565b7f5472616e73666572206661696c656400000000000000000000000000000000005f82015250565b5f611c3c600f8361162e565b9150611c4782611c08565b602082019050919050565b5f6020820190508181035f830152611c6981611c30565b905091905056fea264697066735822122002022490b654baee6c6d8315825f64b64aff3fb02e379f57b2203197c612779f64736f6c63430008140033",
  "linkReferences": {},
  "deployedLinkReferences": {},
  "immutableReferences": {},
  "inputSourceName": "project/contracts/LandEscrow.sol",
  "buildInfoId": "solc-0_8_20-ef66c4a2cedaa6299b78276c5e756ed2af0cc585"
}